:03000000020D04EA
:0C0D0400787FE4F6D8FD75813A020D4BB3
:0811B3004C4556454C3A34004E
:0411CA0002300000EF
:100C5A001209EE120FAFD2A8D288D2AAD28AD2AF84
:100C6A00D3E5319400E530648094804025120FAFBB
:100C7A00D293D292D291D290D2967B05E4FD7F2E66
:100C8A00120D907B06E4FD7F40120D907FF47E01E9
:100C9A00805C20B70CC296C293C292C291C2908065
:100CAA000AD296D293D292D291D290209646E4FB5F
:100CBA00FD7F0A120D907B01E4FD7F1C120D907BD3
:100CCA0002E4FD7F2E120D907B03E4FD7F40120D9E
:100CDA00907B04E4FD7F52120D907BFF7A1179B369
:100CEA00750D107D067F30120EF37FE87E03121118
:0A0CFA0046020C6A120FAF020C6AEA
:03000300020006F2
:0D000600C0E00531E53170020530D0E03278
:030013000211C314
:0711C30075300075310032A8
:10114600EF4E6010007D027CC7DCFEDDFCEF1F70F9
:04115600EF1E80EC1C
:01115A002272
:0111CF0022FD
:0811BB008F993099FDC29922C1
:10104D008B328A338934AB32AA33A934120BAD609B
:10105D00130534E5347002053314F9120BADFF128C
:05106D0011BB80E2222E
:10115B0075985053887F53890F438920758BFD7584
:05116B008DFDD28E2273
:0F119A00D295D2941211CFC2941211CFC29522C6
:0A11A900D295C2941211CFD2942205
:020FEB008F195C
:100FED00E4F51A74807E00A81A088006CEA2E713D5
:100FFD00CE13D8F8FFEF551924FF9294D295121104
:10100D00CFC2951211CF051AC3E51A64809488409A
:01101D00D200
:01101E0022AF
:10117000D294D2951211CFA294E433F519C29512EC
:0411800011CFAF19C3
:011184002248
:100016000000000000000000002F000000000700A4
:10002600070000147F147F1400242A7F2A1200621E
:1000360064081323003649552250000005030000CA
:1000460000001C224100000041221C000014083E52
:1000560008140008083E0808000000A06000000818
:10006600080808080000606000000020100804026C
:10007600003E5149453E0000427F4000004261512A
:100086004946002141454B31001814127F100027C4
:1000960045454539003C4A49493000017109050387
:1000A60000364949493600064949291E00003636B8
:1000B600000000005636000000081422410000141B
:1000C60014141414000041221408000201510906F8
:1000D60000324959513E007C1211127C007F494979
:1000E6004936003E41414122007F4141221C007FAA
:1000F60049494941007F09090901003E4149497AB8
:10010600007F0808087F0000417F41000020404131
:100116003F01007F08142241007F40404040007F9D
:10012600020C027F007F0408107F003E4141413EE1
:10013600007F09090906003E4151215E007F091929
:1001460029460046494949310001017F0101003F26
:100156004040403F001F2040201F003F4038403FA6
:10016600006314081463000708700807006151490A
:10017600454300007F41410000552A552A5500009D
:1001860041417F000004020102040040404040401B
:10019600000001020400002054545478007F4844B3
:1001A600443800384444442000384444487F0038EA
:1001B6005454541800087E0901020018A4A4A47C13
:1001C600007F080404780000447D400000408084DD
:1001D6007D00007F102844000000417F4000007C25
:1001E60004180478007C0804047800384444443831
:1001F60000FC242424180018242418FC007C08047D
:10020600040800485454542000043F444020003C55
:100216004040207C001C2040201C003C4030403CDC
:10022600004428102844001CA0A0A07C004464546C
:100236004C441414141414140000000000000000B0
:100246000000000000000000000000F800000000B0
:10025600000000333000000000100C06100C0600F1
:10026600000000000000000040C07840C078400058
:10027600043F04043F040400007088FC08300000BA
:10028600001820FF211E0000F008F000E018000012
:1002960000211C031E211E0000F0088870000000CB
:1002A6001E2123241927211010160E00000000001D
:1002B6000000000000000000000000E0180402003A
:1002C600000000071820400000020418E0000000AB
:1002D6000040201807000000404080F080404000A9
:1002E6000202010F01020200000000F000000000FF
:1002F6000101011F010101000000000000000000D3
:1003060080B0700000000000000000000000000047
:1003160000010101010101010000000000000000D0
:10032600003030000000000000000000806018046B
:10033600006018060100000000E010080810E00048
:10034600000F102020100F00001010F80000000011
:100356000020203F20200000007008080888700058
:1003660000302824222130000030088888483000D8
:100376000018202020110E000000C02010F80000F8
:1003860000070424243F240000F808888808080091
:100396000019212020110E0000E0108888180000A6
:1003A600000F112020110E0000380808C838080078
:1003B6000000003F000000000070880808887000F8
:1003C600001C222121221C0000E010080810E00079
:1003D6000000312222110F00000000C0C000000002
:1003E6000000003030000000000000800000000027
:1003F600000080600000000000008040201008001F
:1004060000010204081020004040404040404000E7
:1004160004040404040404000008102040800000C2
:100426000020100804020100007048080808F000C7
:100436000000003036010000C030C828E810E00097
:100446000718272423140B000000C038E000000022
:10045600203C23020227382008F88888887000008C
:10046600203F202020110E00C03008080808380060
:10047600071820202010080008F808080810E000D7
:10048600203F202020100F0008F88888E808100078
:10049600203F20202320180008F88888E80810004C
:1004A600203F200003000000C03008080838000084
:1004B60007182020221E020008F808000008F80885
:1004C600203F210101213F20000808F8080800000C
:1004D6000020203F2020000000000808F80808003F
:1004E600C08080807F00000008F888C028180800B7
:1004F600203F20012638200008F8080000000000F0
:10050600203F20202020300008F8F800F8F80800E6
:10051600203F003F003F200008F830C00008F808E0
:10052600203F200007183F00E01008080810E000F0
:100536000F10202020100F0008F808080808F00007
:10054600203F210101010000E01008080810E0002A
:100556000F18242438504F0008F8888888887000BF
:10056600203F2000030C302000708808080838005F
:100576000038202121221C00180808F80808180055
:100586000000203F2000000008F808000008F808D6
:10059600001F202020201F000878880000C8380887
:1005A600000007380E010000F80800F80008F800FF
:1005B600033C0700073C0300081868808068180899
:1005C60020302C03032C30200838C800C838080017
:1005D6000000203F2000000010080808C838080066
:1005E6002038262120201800000000FE020202000A
:1005F6000000007F40404000000C30C000000000BA
:10060600000000010638C00000020202FE000000E1
:10061600004040407F000000000004020202040087
:1006260000000000000000000000000000000000C4
:1006360080808080808080800002020400000000AC
:1006460000000000000000000000808080800000A4
:100656000019242222223F2008F800808000000092
:10066600003F112020110E00000000808080000055
:10067600000E112020201100000000808088F80064
:10068600000E112020103F20000080808080000096
:10069600001F222222221300008080F088888818FA
:1006A6000020203F20200000000080808080800005
:1006B600006B94949493600008F80080808000009A
:1006C600203F210000203F20008098980000000075
:1006D6000020203F202000000000008098980000A5
:1006E60000C08080807F000008F8000080808000C5
:1006F600203F24022D302000000808F800000000EA
:100706000020203F202000008080808080808000A4
:10071600203F20003F20003F808000808080000036
:10072600203F210000203F200000808080800000C4
:10073600001F202020201F008080008080000000F5
:1007460080FFA12020110E00000000808080800024
:10075600000E112020A0FF80808080008080800015
:1007660020203F2120000100000080808080800042
:100776000033242424241900008080E080800000B7
:100786000000001F20200000808000000080800004
:10079600001F202020103F20808080000080808065
:1007A60000010E30080601008080008000808080F5
:1007B6000F300C030C300F0000808000808080001A
:1007C6000020312E0E312000808080000080808045
:1007D60080818E70180601000080808080808000F5
:1007E6000021302C2221300000000000807C020213
:1007F60000000000003F404000000000FF00000035
:1008060000000000FF0000000002027C80000000E3
:100816000040403F000000000006010102020404FF
:1008260000000000000000004040424458C0407FE5
:1008360040C0504846404000000000000000000054
:100846000000000000000000808040201807000023
:10085600003F4040404078000000000000000000DB
:10086600000000000000000008F714549414F4047B
:1008760080708F0808F808000000000000000000E3
:1008860000000000000000001D13115599513F9112
:100896004120130C334080000000000000000000DF
:1008A6000000000000000000008060F80704E4A4D7
:1008B600A4BFA4A4E404000000000000000000009F
:1008C6000000000000000000010000FF40407F4AD9
:1008D6004A4A4A4A7F4040000000000000000000EB
:1008E6000000000000000000404042CC000848889C
:1008F600080808FF080808000000000000000000C3
:1009060000000000000000000040201F2040404181
:100916004048504F404040000000000000000000EA
:10092600000000000000000004040404F4949596FE
:100936009494F40404040400000000000000000085
:10094600000000000000000000FE02027A4A4A4A47
:100956004A4A7A0282FE0000000000000000000001
:10096600000000000000000020102CE7242400E214
:100976002C20BF2028E60000000000000000000038
:1009860000000000000000000101017F2111804FDE
:1009960020100F10204F8000000000000000000013
:1009A6000000000000000000100C4444444445C60A
:1009B6004444444444140C000000000000000000BD
:1009C60000000000000000008040201E2040407F04
:1009D600444444444440400000000000000000003D
:0809E600000000000000000009
:1010D000EF4E60157D087C07ED1DAA0470011C4AC7
:0910E00070F6EF1F70EA1E80E7B4
:0110E90022E4
:101072008F1812119A7F78120FEB121170E4FF127F
:101082000FEB121170AF18120FEB1211700211A9AF
:101092008F1812119A7F78120FEB1211707F401283
:1010A2000FEB121170AF18120FEB1211700211A98F
:061102007F10E4FDFCFE7D
:101108008E168F17ED4C6003021092AF17121072F3
:0111180022B4
:020F33008F35F8
:100F3500E4F536E53624B0FFE433FEE4FDFC12119A
:100F450008E4FDFCFFFE121108121102E4F537AFAB
:100F5500357E007D017C001211080537E537C39405
:0C0F65008040EC0536E536C3940840C718
:010F7100225D
:1010B200D3EF9400EE940040147D657C18ED1D7012
:0D10C200011CED4C70F7EF1F70E61E80E37F
:0110CF0022FE
:10113000EF1FAA0670011E4A600BE4FDEDC3947B0D
:0511400050EE0D80F7E8
:011145002287
:10101F008F15ED24B0FFE433FEE4FDFC121108E55B
:10102F001554F0C4540F7E004410FFE4FDFC121160
:0E103F0008E515540FFF7E00E4FDFC021108C9
:101119007F8D121104E4FDFC7F14FE121108E4FD19
:07112900FC7FAFFE0211087C
:10118500E4FDFC7F8DFE121108121102E4FDFC7FC7
:05119500AEFE0211088E
:100FAF00E4F508E50824B0FFE433FEE4FDFC12117C
:100FBF0008E4FDFCFFFE121108121102E4F5097D91
:100FCF00017C00E4FFFE1211080509E509C39480B6
:0B0FDF0040ED0508E508C3940840C879
:010FEA0022E4
:100F7200E4F538E53824B0FFE433FEE4FDFC121159
:100F820008E4FDFCFFFE121108121102E4F5397D9E
:100F9200017C007F017E001211080539E539C394F6
:0C0FA2008040EC0538E538C3940840C7D7
:010FAE002220
:040AD9008F0F8D10DE
:100ADD00E4F513F514EB24E0F513E50FD3947F4003
:100AED0007E4F50F05100510E51264107077AD10D1
:100AFD00AF0F12101FE4F51475F010E513A42514B3
:100B0D00F582E435F0F583E582243EF582E5833404
:100B1D0002F583E493FF7E007D017C001211080530
:100B2D0014E514C3940840D0E51004FDAF0F121066
:100B3D001FE4F51475F010E513A42514F582E435C2
:100B4D00F0F583E5822446F582E5833402F583E4EE
:100B5D0093FF7E007D017C001211080514E514C37E
:100B6D00940840D022AD10AF0F12101FE4F514758C
:100B7D00F006E513A42416F582E5F03400F583E5BF
:100B8D00822514F582E43583F583E493FF7E007DA1
:0F0B9D00017C001211080514E514C3940640D022
:010BAC002226
:0410EA008F3AA9058B
:1010EE007F017E00AD0119ED6009AD3A7C00120B57
:0310FE00F380F18B
:0111010022CB
:080E10008F268D278A288B290B
:100E1800E4F52EF52CE52CC3952A5065C3E52A95F3
:100E28002C14FD7F0A1210EAAC28AD29CFCDCFCE05
:100E3800CCCE120C057C007D0A120C058D2DE52EFA
:100E48007023E52A14FFE52CC39F5019E52D701275
:100E5800E52BC313852CF0A42526FF852B127B20B8
:100E68008016752E01E52BC313852CF0A42526FFCB
:100E7800E52D2430FB852B12AD27120AD9052C80CD
:010E880094D5
:010E89002246
:0A0EF3008F088D098B0A8A0B890C09
:100EFD00E4F50EAB0AAA0BA90C850E8275830012C0
:100F0D000BC6FB6020850D12AD09AF08120AD9740E
:100F1D00082508F508D394784007E4F50805090578
:050F2D0009050E80CE55
:010F3200229C
:060D90008F088D098B0A9B
:100D9600E4F50C12101FE4F50B75F040E50AA424E7
:100DA6002EF582E5F03408F583E582250BF582E41D
:100DB6003583F583E493FF7E007D017C00121108E4
:100DC600050C050BE50BC3941040CEE50904FDAFF9
:100DD6000812101FE4F50B75F040E50AA4244EF541
:100DE60082E5F03408F583E582250BF582E4358348
:100DF600F583E493FF7E007D017C00121108050C4B
:090E0600050BE50BC3941040CE6E
:010E0F0022C0
:040E8A008F1B8B1D12
:100E8E00E4F522F523E51E5407700BE51E1313132C
:100E9E00541FF525800AE51E131313541F04F52560
:100EAE008D25E525C3951E503BAD25AF1B12101F9A
:100EBE00851B24E524C3951D5026AB1FAA20A9210E
:100ECE000523E523AE227002052214F5828E8312CD
:100EDE000BC6FF7E007D017C00121108052480D315
:040EEE00052580BE98
:010EF20022DD
:1009EE00E4FDFC7FAEFE121108E4FDFCFFFE1211C9
:1009FE0008121102E4FDFC7F40FE121108E4FDFC1A
:100A0E007FB0FE121108E4FDFC7F81FE121108E496
:100A1E00FDFC7FFFFE121108E4FDFC7FA1FE12110A
:100A2E0008E4FDFC7FA6FE121108E4FDFC7FA8FE83
:100A3E00121108E4FDFC7F3FFE121108E4FDFC7F5D
:100A4E00C8FE121108E4FDFC7FD3FE121108E4FD6E
:100A5E00FCFFFE121108E4FDFC7FD5FE121108E426
:100A6E00FDFC7F80FE121108E4FDFC7FD8FE121102
:100A7E0008E4FDFC7F05FE121108E4FDFC7FD9FEA3
:100A8E00121108E4FDFC7FF1FE121108E4FDFC7F5B
:100A9E00DAFE121108E4FDFC7F12FE121108E4FDCD
:100AAE00FC7FDBFE121108E4FDFC7F30FE12110804
:100ABE00E4FDFC7F8DFE121108E4FDFC7F14FE1296
:0B0ACE001108E4FDFC7FAFFE021108E0
:100D1000020C5AE493A3F8E493A34003F68001F293
:100D200008DFF48029E493A3F85407240CC8C333E4
:100D3000C4540F4420C8834004F456800146F6DFB3
:100D4000E4800B01020408102040809011CAE47E68
:100D5000019360BCA3FF543F30E509541FFEE493A8
:100D6000A360010ECF54C025E060A840B8E493A36F
:100D7000FAE493A3F8E493A3C8C582C8CAC583CA9A
:100D8000F0A3C8C582C8CAC583CADFE9DEE780BE52
:0111CE000020
:100BAD00BB010689828A83E0225002E722BBFE0246
:090BBD00E32289828A83E4932279
:100BC600BB010CE58229F582E5833AF583E02250E4
:100BD60006E92582F8E622BBFE06E92582F8E2222E
:0D0BE600E58229F582E5833AF583E4932248
:100BF300EF8DF0A4A8F0CF8CF0A428CE8DF0A42E16
:020C0300FE22CF
:100C0500BC000BBE0029EF8DF084FFADF022E4CCD3
:100C1500F875F008EF2FFFEE33FEEC33FCEE9DEC9C
:100C2500984005FCEE9DFE0FD5F0E9E4CEFD22EDE2
:100C3500F8F5F0EE8420D21CFEADF075F008EF2F2C
:100C4500FFED33FD4007985006D5F0F222C398FD1D
:050C55000FD5F0EA22BA
:00000001FF
